{
  "_format": "hh-sol-artifact-1",
  "contractName": "FundManager",
  "sourceName": "contracts/FundManager.sol",
  "abi": [
    {
      "inputs": [],
      "stateMutability": "nonpayable",
      "type": "constructor"
    },
    {
      "anonymous": false,
      "inputs": [
        {
          "indexed": false,
          "internalType": "uint256",
          "name": "amount",
          "type": "uint256"
        },
        {
          "indexed": false,
          "internalType": "string",
          "name": "feeType",
          "type": "string"
        }
      ],
      "name": "FeeCollected",
      "type": "event"
    },
    {
      "anonymous": false,
      "inputs": [
        {
          "indexed": false,
          "internalType": "uint256",
          "name": "projectId",
          "type": "uint256"
        },
        {
          "indexed": false,
          "internalType": "uint256",
          "name": "amount",
          "type": "uint256"
        }
      ],
      "name": "FundsAllocated",
      "type": "event"
    },
    {
      "anonymous": false,
      "inputs": [
        {
          "indexed": true,
          "internalType": "address",
          "name": "from",
          "type": "address"
        },
        {
          "indexed": false,
          "internalType": "uint256",
          "name": "amount",
          "type": "uint256"
        }
      ],
      "name": "FundsDeposited",
      "type": "event"
    },
    {
      "anonymous": false,
      "inputs": [
        {
          "indexed": true,
          "internalType": "address",
          "name": "to",
          "type": "address"
        },
        {
          "indexed": false,
          "internalType": "uint256",
          "name": "amount",
          "type": "uint256"
        }
      ],
      "name": "FundsWithdrawn",
      "type": "event"
    },
    {
      "inputs": [
        {
          "internalType": "uint256",
          "name": "_projectId",
          "type": "uint256"
        },
        {
          "internalType": "uint256",
          "name": "_amount",
          "type": "uint256"
        }
      ],
      "name": "allocateFunds",
      "outputs": [],
      "stateMutability": "nonpayable",
      "type": "function"
    },
    {
      "inputs": [],
      "name": "allocatedFunds",
      "outputs": [
        {
          "internalType": "uint256",
          "name": "",
          "type": "uint256"
        }
      ],
      "stateMutability": "view",
      "type": "function"
    },
    {
      "inputs": [],
      "name": "availableFunds",
      "outputs": [
        {
          "internalType": "uint256",
          "name": "",
          "type": "uint256"
        }
      ],
      "stateMutability": "view",
      "type": "function"
    },
    {
      "inputs": [
        {
          "internalType": "uint256",
          "name": "_amount",
          "type": "uint256"
        },
        {
          "internalType": "string",
          "name": "_feeType",
          "type": "string"
        }
      ],
      "name": "collectFee",
      "outputs": [],
      "stateMutability": "nonpayable",
      "type": "function"
    },
    {
      "inputs": [],
      "name": "depositFunds",
      "outputs": [],
      "stateMutability": "payable",
      "type": "function"
    },
    {
      "inputs": [
        {
          "internalType": "uint256",
          "name": "_index",
          "type": "uint256"
        }
      ],
      "name": "getOperation",
      "outputs": [
        {
          "internalType": "address",
          "name": "operator",
          "type": "address"
        },
        {
          "internalType": "uint8",
          "name": "opType",
          "type": "uint8"
        },
        {
          "internalType": "uint256",
          "name": "amount",
          "type": "uint256"
        },
        {
          "internalType": "uint256",
          "name": "timestamp",
          "type": "uint256"
        },
        {
          "internalType": "string",
          "name": "description",
          "type": "string"
        }
      ],
      "stateMutability": "view",
      "type": "function"
    },
    {
      "inputs": [],
      "name": "getOperationCount",
      "outputs": [
        {
          "internalType": "uint256",
          "name": "",
          "type": "uint256"
        }
      ],
      "stateMutability": "view",
      "type": "function"
    },
    {
      "inputs": [],
      "name": "getPoolStatus",
      "outputs": [
        {
          "internalType": "uint256",
          "name": "total",
          "type": "uint256"
        },
        {
          "internalType": "uint256",
          "name": "available",
          "type": "uint256"
        },
        {
          "internalType": "uint256",
          "name": "allocated",
          "type": "uint256"
        },
        {
          "internalType": "uint256",
          "name": "reserve",
          "type": "uint256"
        }
      ],
      "stateMutability": "view",
      "type": "function"
    },
    {
      "inputs": [
        {
          "internalType": "uint256",
          "name": "",
          "type": "uint256"
        }
      ],
      "name": "operationHistory",
      "outputs": [
        {
          "internalType": "address",
          "name": "operator",
          "type": "address"
        },
        {
          "internalType": "enum FundManager.OperationType",
          "name": "opType",
          "type": "uint8"
        },
        {
          "internalType": "uint256",
          "name": "amount",
          "type": "uint256"
        },
        {
          "internalType": "uint256",
          "name": "timestamp",
          "type": "uint256"
        },
        {
          "internalType": "string",
          "name": "description",
          "type": "string"
        }
      ],
      "stateMutability": "view",
      "type": "function"
    },
    {
      "inputs": [],
      "name": "owner",
      "outputs": [
        {
          "internalType": "address",
          "name": "",
          "type": "address"
        }
      ],
      "stateMutability": "view",
      "type": "function"
    },
    {
      "inputs": [],
      "name": "platformReserve",
      "outputs": [
        {
          "internalType": "uint256",
          "name": "",
          "type": "uint256"
        }
      ],
      "stateMutability": "view",
      "type": "function"
    },
    {
      "inputs": [],
      "name": "totalFunds",
      "outputs": [
        {
          "internalType": "uint256",
          "name": "",
          "type": "uint256"
        }
      ],
      "stateMutability": "view",
      "type": "function"
    },
    {
      "inputs": [
        {
          "internalType": "address payable",
          "name": "_recipient",
          "type": "address"
        },
        {
          "internalType": "uint256",
          "name": "_amount",
          "type": "uint256"
        }
      ],
      "name": "withdrawFunds",
      "outputs": [],
      "stateMutability": "nonpayable",
      "type": "function"
    }
  ],
  "bytecode": "0x608060405234801561001057600080fd5b50336000806101000a81548173ffffffffffffffffffffffffffffffffffffffff021916908373ffffffffffffffffffffffffffffffffffffffff160217905550611b20806100606000396000f3fe6080604052600436106100c25760003560e01c806356149adf1161007f578063968ed60011610059578063968ed60014610275578063c1075329146102a0578063d4cc54e4146102c9578063e2c41dbc146102f4576100c2565b806356149adf146101f15780637f79496c1461021c5780638da5cb5b1461024a576100c2565b80630d4e80ae146100c7578063202e39241461010857806330d9f76314610149578063328fb51014610172578063422770971461019b57806346fcff4c146101c6575b600080fd5b3480156100d357600080fd5b506100ee60048036038101906100e99190610f94565b6102fe565b6040516100ff959493929190611118565b60405180910390f35b34801561011457600080fd5b5061012f600480360381019061012a9190610f94565b6103f9565b60405161014095949392919061118e565b60405180910390f35b34801561015557600080fd5b50610170600480360381019061016b919061131d565b61051e565b005b34801561017e57600080fd5b5061019960048036038101906101949190611379565b61079c565b005b3480156101a757600080fd5b506101b0610a1b565b6040516101bd91906113b9565b60405180910390f35b3480156101d257600080fd5b506101db610a21565b6040516101e891906113b9565b60405180910390f35b3480156101fd57600080fd5b50610206610a27565b60405161021391906113b9565b60405180910390f35b34801561022857600080fd5b50610231610a34565b60405161024194939291906113d4565b60405180910390f35b34801561025657600080fd5b5061025f610a54565b60405161026c9190611419565b60405180910390f35b34801561028157600080fd5b5061028a610a78565b60405161029791906113b9565b60405180910390f35b3480156102ac57600080fd5b506102c760048036038101906102c29190611472565b610a7e565b005b3480156102d557600080fd5b506102de610d6f565b6040516102eb91906113b9565b60405180910390f35b6102fc610d75565b005b6005818154811061030e57600080fd5b90600052602060002090600402016000915090508060000160009054906101000a900473ffffffffffffffffffffffffffffffffffffffff16908060000160149054906101000a900460ff1690806001015490806002015490806003018054610376906114e1565b80601f01602080910402602001604051908101604052809291908181526020018280546103a2906114e1565b80156103ef5780601f106103c4576101008083540402835291602001916103ef565b820191906000526020600020905b8154815290600101906020018083116103d257829003601f168201915b5050505050905085565b600080600080606060006005878154811061041757610416611512565b5b906000526020600020906004020190508060000160009054906101000a900473ffffffffffffffffffffffffffffffffffffffff168160000160149054906101000a900460ff1660038111156104705761046f611002565b5b826001015483600201548460030180805461048a906114e1565b80601f01602080910402602001604051908101604052809291908181526020018280546104b6906114e1565b80156105035780601f106104d857610100808354040283529160200191610503565b820191906000526020600020905b8154815290600101906020018083116104e657829003601f168201915b50505050509050955095509550955095505091939590929450565b60008054906101000a900473ffffffffffffffffffffffffffffffffffffffff1673ffffffffffffffffffffffffffffffffffffffff163373ffffffffffffffffffffffffffffffffffffffff16146105ac576040517f08c379a00000000000000000000000000000000000000000000000000000000081526004016105a3906115b3565b60405180910390fd5b6002548211156105f1576040517f08c379a00000000000000000000000000000000000000000000000000000000081526004016105e89061161f565b60405180910390fd5b8160026000828254610603919061166e565b92505081905550816004600082825461061c91906116a2565b9250508190555060056040518060a001604052803373ffffffffffffffffffffffffffffffffffffffff16815260200160038081111561065f5761065e611002565b5b815260200184815260200142815260200183604051602001610681919061175e565b604051602081830303815290604052815250908060018154018082558091505060019003906000526020600020906004020160009091909190915060008201518160000160006101000a81548173ffffffffffffffffffffffffffffffffffffffff021916908373ffffffffffffffffffffffffffffffffffffffff16021790555060208201518160000160146101000a81548160ff0219169083600381111561072e5761072d611002565b5b02179055506040820151816001015560608201518160020155608082015181600301908161075c919061192c565b5050507fa0787cbfb10fdd8da9d26247f9213e024f43130dbf2eaa7b5b5a3f0f37593f4582826040516107909291906119fe565b60405180910390a15050565b60008054906101000a900473ffffffffffffffffffffffffffffffffffffffff1673ffffffffffffffffffffffffffffffffffffffff163373ffffffffffffffffffffffffffffffffffffffff161461082a576040517f08c379a0000000000000000000000000000000000000000000000000000000008152600401610821906115b3565b60405180910390fd5b60025481111561086f576040517f08c379a00000000000000000000000000000000000000000000000000000000081526004016108669061161f565b60405180910390fd5b8060026000828254610881919061166e565b92505081905550806003600082825461089a91906116a2565b9250508190555060056040518060a001604052803373ffffffffffffffffffffffffffffffffffffffff168152602001600260038111156108de576108dd611002565b5b8152602001838152602001428152602001846040516020016109009190611a9b565b604051602081830303815290604052815250908060018154018082558091505060019003906000526020600020906004020160009091909190915060008201518160000160006101000a81548173ffffffffffffffffffffffffffffffffffffffff021916908373ffffffffffffffffffffffffffffffffffffffff16021790555060208201518160000160146101000a81548160ff021916908360038111156109ad576109ac611002565b5b0217905550604082015181600101556060820151816002015560808201518160030190816109db919061192c565b5050507fa76702541970ac8a240a5f42c5a0d1558c299844949ec41fad31fac5444e55048282604051610a0f929190611ac1565b60405180910390a15050565b60045481565b60025481565b6000600580549050905090565b600080600080600154600254600354600454935093509350935090919293565b60008054906101000a900473ffffffffffffffffffffffffffffffffffffffff1681565b60015481565b60008054906101000a900473ffffffffffffffffffffffffffffffffffffffff1673ffffffffffffffffffffffffffffffffffffffff163373ffffffffffffffffffffffffffffffffffffffff1614610b0c576040517f08c379a0000000000000000000000000000000000000000000000000000000008152600401610b03906115b3565b60405180910390fd5b600254811115610b51576040517f08c379a0000000000000000000000000000000000000000000000000000000008152600401610b489061161f565b60405180910390fd5b8060026000828254610b63919061166e565b925050819055508060016000828254610b7c919061166e565b9250508190555060056040518060a001604052803373ffffffffffffffffffffffffffffffffffffffff16815260200160016003811115610bc057610bbf611002565b5b81526020018381526020014281526020016040518060400160405280600f81526020017f506f6f6c207769746864726177616c0000000000000000000000000000000000815250815250908060018154018082558091505060019003906000526020600020906004020160009091909190915060008201518160000160006101000a81548173ffffffffffffffffffffffffffffffffffffffff021916908373ffffffffffffffffffffffffffffffffffffffff16021790555060208201518160000160146101000a81548160ff02191690836003811115610ca557610ca4611002565b5b021790555060408201518160010155606082015181600201556080820151816003019081610cd3919061192c565b5050508173ffffffffffffffffffffffffffffffffffffffff166108fc829081150290604051600060405180830381858888f19350505050158015610d1c573d6000803e3d6000fd5b508173ffffffffffffffffffffffffffffffffffffffff167feaff4b37086828766ad3268786972c0cd24259d4c87a80f9d3963a3c3d999b0d82604051610d6391906113b9565b60405180910390a25050565b60035481565b3460016000828254610d8791906116a2565b925050819055503460026000828254610da091906116a2565b9250508190555060056040518060a001604052803373ffffffffffffffffffffffffffffffffffffffff16815260200160006003811115610de457610de3611002565b5b81526020013481526020014281526020016040518060400160405280600c81526020017f506f6f6c206465706f7369740000000000000000000000000000000000000000815250815250908060018154018082558091505060019003906000526020600020906004020160009091909190915060008201518160000160006101000a81548173ffffffffffffffffffffffffffffffffffffffff021916908373ffffffffffffffffffffffffffffffffffffffff16021790555060208201518160000160146101000a81548160ff02191690836003811115610ec957610ec8611002565b5b021790555060408201518160010155606082015181600201556080820151816003019081610ef7919061192c565b5050503373ffffffffffffffffffffffffffffffffffffffff167f543ba50a5eec5e6178218e364b1d0f396157b3c8fa278522c2cb7fd99407d47434604051610f4091906113b9565b60405180910390a2565b6000604051905090565b600080fd5b600080fd5b6000819050919050565b610f7181610f5e565b8114610f7c57600080fd5b50565b600081359050610f8e81610f68565b92915050565b600060208284031215610faa57610fa9610f54565b5b6000610fb884828501610f7f565b91505092915050565b600073ffffffffffffffffffffffffffffffffffffffff82169050919050565b6000610fec82610fc1565b9050919050565b610ffc81610fe1565b82525050565b7f4e487b7100000000000000000000000000000000000000000000000000000000600052602160045260246000fd5b6004811061104257611041611002565b5b50565b600081905061105382611031565b919050565b600061106382611045565b9050919050565b61107381611058565b82525050565b61108281610f5e565b82525050565b600081519050919050565b600082825260208201905092915050565b60005b838110156110c25780820151818401526020810190506110a7565b60008484015250505050565b6000601f19601f8301169050919050565b60006110ea82611088565b6110f48185611093565b93506111048185602086016110a4565b61110d816110ce565b840191505092915050565b600060a08201905061112d6000830188610ff3565b61113a602083018761106a565b6111476040830186611079565b6111546060830185611079565b818103608083015261116681846110df565b90509695505050505050565b600060ff82169050919050565b61118881611172565b82525050565b600060a0820190506111a36000830188610ff3565b6111b0602083018761117f565b6111bd6040830186611079565b6111ca6060830185611079565b81810360808301526111dc81846110df565b90509695505050505050565b600080fd5b600080fd5b7f4e487b7100000000000000000000000000000000000000000000000000000000600052604160045260246000fd5b61122a826110ce565b810181811067ffffffffffffffff82111715611249576112486111f2565b5b80604052505050565b600061125c610f4a565b90506112688282611221565b919050565b600067ffffffffffffffff821115611288576112876111f2565b5b611291826110ce565b9050602081019050919050565b82818337600083830152505050565b60006112c06112bb8461126d565b611252565b9050828152602081018484840111156112dc576112db6111ed565b5b6112e784828561129e565b509392505050565b600082601f830112611304576113036111e8565b5b81356113148482602086016112ad565b91505092915050565b6000806040838503121561133457611333610f54565b5b600061134285828601610f7f565b925050602083013567ffffffffffffffff81111561136357611362610f59565b5b61136f858286016112ef565b9150509250929050565b600080604083850312156113905761138f610f54565b5b600061139e85828601610f7f565b92505060206113af85828601610f7f565b9150509250929050565b60006020820190506113ce6000830184611079565b92915050565b60006080820190506113e96000830187611079565b6113f66020830186611079565b6114036040830185611079565b6114106060830184611079565b95945050505050565b600060208201905061142e6000830184610ff3565b92915050565b600061143f82610fc1565b9050919050565b61144f81611434565b811461145a57600080fd5b50565b60008135905061146c81611446565b92915050565b6000806040838503121561148957611488610f54565b5b60006114978582860161145d565b92505060206114a885828601610f7f565b9150509250929050565b7f4e487b7100000000000000000000000000000000000000000000000000000000600052602260045260246000fd5b600060028204905060018216806114f957607f821691505b60208210810361150c5761150b6114b2565b5b50919050565b7f4e487b7100000000000000000000000000000000000000000000000000000000600052603260045260246000fd5b7f4f6e6c79206f776e65722063616e2063616c6c20746869732066756e6374696f60008201527f6e00000000000000000000000000000000000000000000000000000000000000602082015250565b600061159d602183611093565b91506115a882611541565b604082019050919050565b600060208201905081810360008301526115cc81611590565b9050919050565b7f496e73756666696369656e7420617661696c61626c652066756e647300000000600082015250565b6000611609601c83611093565b9150611614826115d3565b602082019050919050565b60006020820190508181036000830152611638816115fc565b9050919050565b7f4e487b7100000000000000000000000000000000000000000000000000000000600052601160045260246000fd5b600061167982610f5e565b915061168483610f5e565b925082820390508181111561169c5761169b61163f565b5b92915050565b60006116ad82610f5e565b91506116b883610f5e565b92508282019050808211156116d0576116cf61163f565b5b92915050565b600081905092915050565b7f46656520636f6c6c656374696f6e3a2000000000000000000000000000000000600082015250565b60006117176010836116d6565b9150611722826116e1565b601082019050919050565b600061173882611088565b61174281856116d6565b93506117528185602086016110a4565b80840191505092915050565b60006117698261170a565b9150611775828461172d565b915081905092915050565b60008190508160005260206000209050919050565b60006020601f8301049050919050565b600082821b905092915050565b6000600883026117e27fffffffffffffffffffffffffffffffffffffffffffffffffffffffffffffffff826117a5565b6117ec86836117a5565b95508019841693508086168417925050509392505050565b6000819050919050565b600061182961182461181f84610f5e565b611804565b610f5e565b9050919050565b6000819050919050565b6118438361180e565b61185761184f82611830565b8484546117b2565b825550505050565b600090565b61186c61185f565b61187781848461183a565b505050565b5b8181101561189b57611890600082611864565b60018101905061187d565b5050565b601f8211156118e0576118b181611780565b6118ba84611795565b810160208510156118c9578190505b6118dd6118d585611795565b83018261187c565b50505b505050565b600082821c905092915050565b6000611903600019846008026118e5565b1980831691505092915050565b600061191c83836118f2565b9150826002028217905092915050565b61193582611088565b67ffffffffffffffff81111561194e5761194d6111f2565b5b61195882546114e1565b61196382828561189f565b600060209050601f8311600181146119965760008415611984578287015190505b61198e8582611910565b8655506119f6565b601f1984166119a486611780565b60005b828110156119cc578489015182556001820191506020850194506020810190506119a7565b868310156119e957848901516119e5601f8916826118f2565b8355505b6001600288020188555050505b505050505050565b6000604082019050611a136000830185611079565b8181036020830152611a2581846110df565b90509392505050565b7f416c6c6f636174696f6e20746f2070726f6a6563742000000000000000000000600082015250565b6000611a646016836116d6565b9150611a6f82611a2e565b601682019050919050565b6000819050919050565b611a95611a9082610f5e565b611a7a565b82525050565b6000611aa682611a57565b9150611ab28284611a84565b60208201915081905092915050565b6000604082019050611ad66000830185611079565b611ae36020830184611079565b939250505056fea2646970667358221220b23e85b453f2fa8b3d3e4ff693d784a73f8bf0202d50eb37dd8baa4bdd9b3b8464736f6c63430008130033",
  "linkReferences": {},
  "deployedLinkReferences": {}
}