{
  "_format": "hh-sol-artifact-1",
  "contractName": "DefaultHandler",
  "sourceName": "contracts/DefaultHandler.sol",
  "abi": [
    {
      "anonymous": false,
      "inputs": [
        {
          "indexed": false,
          "internalType": "uint256",
          "name": "projectId",
          "type": "uint256"
        },
        {
          "indexed": false,
          "internalType": "address",
          "name": "voter",
          "type": "address"
        },
        {
          "indexed": false,
          "internalType": "bool",
          "name": "inFavor",
          "type": "bool"
        },
        {
          "indexed": false,
          "internalType": "uint256",
          "name": "power",
          "type": "uint256"
        }
      ],
      "name": "VoteCast",
      "type": "event"
    },
    {
      "anonymous": false,
      "inputs": [
        {
          "indexed": false,
          "internalType": "uint256",
          "name": "projectId",
          "type": "uint256"
        },
        {
          "indexed": false,
          "internalType": "bool",
          "name": "continueProject",
          "type": "bool"
        }
      ],
      "name": "VoteExecuted",
      "type": "event"
    },
    {
      "anonymous": false,
      "inputs": [
        {
          "indexed": false,
          "internalType": "uint256",
          "name": "projectId",
          "type": "uint256"
        },
        {
          "indexed": false,
          "internalType": "uint256",
          "name": "deadline",
          "type": "uint256"
        }
      ],
      "name": "VoteStarted",
      "type": "event"
    },
    {
      "inputs": [
        {
          "internalType": "uint256",
          "name": "_projectId",
          "type": "uint256"
        },
        {
          "internalType": "bool",
          "name": "_inFavor",
          "type": "bool"
        }
      ],
      "name": "castVote",
      "outputs": [],
      "stateMutability": "nonpayable",
      "type": "function"
    },
    {
      "inputs": [
        {
          "internalType": "uint256",
          "name": "_projectId",
          "type": "uint256"
        }
      ],
      "name": "executeVote",
      "outputs": [],
      "stateMutability": "nonpayable",
      "type": "function"
    },
    {
      "inputs": [
        {
          "internalType": "uint256",
          "name": "_projectId",
          "type": "uint256"
        }
      ],
      "name": "getVoteInfo",
      "outputs": [
        {
          "internalType": "uint256",
          "name": "votesFor",
          "type": "uint256"
        },
        {
          "internalType": "uint256",
          "name": "votesAgainst",
          "type": "uint256"
        },
        {
          "internalType": "uint256",
          "name": "deadline",
          "type": "uint256"
        },
        {
          "internalType": "bool",
          "name": "isActive",
          "type": "bool"
        },
        {
          "internalType": "bool",
          "name": "isExecuted",
          "type": "bool"
        }
      ],
      "stateMutability": "view",
      "type": "function"
    },
    {
      "inputs": [
        {
          "internalType": "uint256",
          "name": "_projectId",
          "type": "uint256"
        },
        {
          "internalType": "address",
          "name": "_voter",
          "type": "address"
        }
      ],
      "name": "getVotingPower",
      "outputs": [
        {
          "internalType": "uint256",
          "name": "",
          "type": "uint256"
        }
      ],
      "stateMutability": "view",
      "type": "function"
    },
    {
      "inputs": [
        {
          "internalType": "uint256",
          "name": "_projectId",
          "type": "uint256"
        },
        {
          "internalType": "address",
          "name": "_voter",
          "type": "address"
        }
      ],
      "name": "hasVoted",
      "outputs": [
        {
          "internalType": "bool",
          "name": "",
          "type": "bool"
        }
      ],
      "stateMutability": "view",
      "type": "function"
    },
    {
      "inputs": [
        {
          "internalType": "uint256",
          "name": "_projectId",
          "type": "uint256"
        },
        {
          "internalType": "address",
          "name": "_voter",
          "type": "address"
        },
        {
          "internalType": "uint256",
          "name": "_power",
          "type": "uint256"
        }
      ],
      "name": "setVotingPower",
      "outputs": [],
      "stateMutability": "nonpayable",
      "type": "function"
    },
    {
      "inputs": [
        {
          "internalType": "uint256",
          "name": "_projectId",
          "type": "uint256"
        },
        {
          "internalType": "uint256",
          "name": "_durationInDays",
          "type": "uint256"
        }
      ],
      "name": "startVote",
      "outputs": [],
      "stateMutability": "nonpayable",
      "type": "function"
    },
    {
      "inputs": [
        {
          "internalType": "uint256",
          "name": "",
          "type": "uint256"
        }
      ],
      "name": "votes",
      "outputs": [
        {
          "internalType": "uint256",
          "name": "votesFor",
          "type": "uint256"
        },
        {
          "internalType": "uint256",
          "name": "votesAgainst",
          "type": "uint256"
        },
        {
          "internalType": "uint256",
          "name": "deadline",
          "type": "uint256"
        },
        {
          "internalType": "bool",
          "name": "isActive",
          "type": "bool"
        },
        {
          "internalType": "bool",
          "name": "isExecuted",
          "type": "bool"
        }
      ],
      "stateMutability": "view",
      "type": "function"
    }
  ],
  "bytecode": "0x608060405234801561001057600080fd5b506110b1806100206000396000f3fe608060405234801561001057600080fd5b50600436106100885760003560e01c80637a19a95d1161005b5780637a19a95d146101295780638d82427314610145578063dbdad43214610179578063f98a4eca146101a957610088565b806315373e3d1461008d5780631d9f4343146100a957806343859632146100c55780635df81330146100f5575b600080fd5b6100a760048036038101906100a291906109e6565b6101c5565b005b6100c360048036038101906100be9190610a26565b610526565b005b6100df60048036038101906100da9190610ac4565b61060f565b6040516100ec9190610b13565b60405180910390f35b61010f600480360381019061010a9190610b2e565b610679565b604051610120959493929190610b6a565b60405180910390f35b610143600480360381019061013e9190610bbd565b6106c9565b005b61015f600480360381019061015a9190610b2e565b61072b565b604051610170959493929190610b6a565b60405180910390f35b610193600480360381019061018e9190610ac4565b61078f565b6040516101a09190610c10565b60405180910390f35b6101c360048036038101906101be9190610b2e565b6107ec565b005b600080600084815260200190815260200160002090508060030160009054906101000a900460ff1661022c576040517f08c379a000000000000000000000000000000000000000000000000000000000815260040161022390610c88565b60405180910390fd5b80600201544210610272576040517f08c379a000000000000000000000000000000000000000000000000000000000815260040161026990610cf4565b60405180910390fd5b8060040160003373ffffffffffffffffffffffffffffffffffffffff1673ffffffffffffffffffffffffffffffffffffffff16815260200190815260200160002060009054906101000a900460ff1615610301576040517f08c379a00000000000000000000000000000000000000000000000000000000081526004016102f890610d60565b60405180910390fd5b60008160050160003373ffffffffffffffffffffffffffffffffffffffff1673ffffffffffffffffffffffffffffffffffffffff1681526020019081526020016000205411610385576040517f08c379a000000000000000000000000000000000000000000000000000000000815260040161037c90610dcc565b60405180910390fd5b60018160040160003373ffffffffffffffffffffffffffffffffffffffff1673ffffffffffffffffffffffffffffffffffffffff16815260200190815260200160002060006101000a81548160ff0219169083151502179055508115610446578060050160003373ffffffffffffffffffffffffffffffffffffffff1673ffffffffffffffffffffffffffffffffffffffff1681526020019081526020016000205481600001600082825461043a9190610e1b565b925050819055506104a3565b8060050160003373ffffffffffffffffffffffffffffffffffffffff1673ffffffffffffffffffffffffffffffffffffffff1681526020019081526020016000205481600101600082825461049b9190610e1b565b925050819055505b7fcbdf6214089cba887ecbf35a0b6a734589959c9763342c756bb2a80ca2bc9f6e8333848460050160003373ffffffffffffffffffffffffffffffffffffffff1673ffffffffffffffffffffffffffffffffffffffff168152602001908152602001600020546040516105199493929190610e5e565b60405180910390a1505050565b600080600084815260200190815260200160002090508060030160009054906101000a900460ff161561058e576040517f08c379a000000000000000000000000000000000000000000000000000000000815260040161058590610eef565b60405180910390fd5b620151808261059d9190610f0f565b426105a89190610e1b565b816002018190555060018160030160006101000a81548160ff0219169083151502179055507f6e50243302fbd5b00a6d3511124576121ccae3e3e6fc43da0f888a03099373aa838260020154604051610602929190610f51565b60405180910390a1505050565b600080600084815260200190815260200160002060040160008373ffffffffffffffffffffffffffffffffffffffff1673ffffffffffffffffffffffffffffffffffffffff16815260200190815260200160002060009054906101000a900460ff16905092915050565b60006020528060005260406000206000915090508060000154908060010154908060020154908060030160009054906101000a900460ff16908060030160019054906101000a900460ff16905085565b60008060008581526020019081526020016000209050818160050160008573ffffffffffffffffffffffffffffffffffffffff1673ffffffffffffffffffffffffffffffffffffffff1681526020019081526020016000208190555050505050565b60008060008060008060008088815260200190815260200160002090508060000154816001015482600201548360030160009054906101000a900460ff168460030160019054906101000a900460ff16955095509550955095505091939590929450565b600080600084815260200190815260200160002060050160008373ffffffffffffffffffffffffffffffffffffffff1673ffffffffffffffffffffffffffffffffffffffff16815260200190815260200160002054905092915050565b600080600083815260200190815260200160002090508060030160009054906101000a900460ff16610853576040517f08c379a000000000000000000000000000000000000000000000000000000000815260040161084a90610c88565b60405180910390fd5b806002015442101561089a576040517f08c379a000000000000000000000000000000000000000000000000000000000815260040161089190610fc6565b60405180910390fd5b8060030160019054906101000a900460ff16156108ec576040517f08c379a00000000000000000000000000000000000000000000000000000000081526004016108e390611032565b60405180910390fd5b60008160030160006101000a81548160ff02191690831515021790555060018160030160016101000a81548160ff0219169083151502179055506000816001015482600001541190507fcf40a1f621c94c9d8fd190570ee1606e7dedeb8fa422057b24f5ce1ea14111fc8382604051610966929190611052565b60405180910390a1505050565b600080fd5b6000819050919050565b61098b81610978565b811461099657600080fd5b50565b6000813590506109a881610982565b92915050565b60008115159050919050565b6109c3816109ae565b81146109ce57600080fd5b50565b6000813590506109e0816109ba565b92915050565b600080604083850312156109fd576109fc610973565b5b6000610a0b85828601610999565b9250506020610a1c858286016109d1565b9150509250929050565b60008060408385031215610a3d57610a3c610973565b5b6000610a4b85828601610999565b9250506020610a5c85828601610999565b9150509250929050565b600073ffffffffffffffffffffffffffffffffffffffff82169050919050565b6000610a9182610a66565b9050919050565b610aa181610a86565b8114610aac57600080fd5b50565b600081359050610abe81610a98565b92915050565b60008060408385031215610adb57610ada610973565b5b6000610ae985828601610999565b9250506020610afa85828601610aaf565b9150509250929050565b610b0d816109ae565b82525050565b6000602082019050610b286000830184610b04565b92915050565b600060208284031215610b4457610b43610973565b5b6000610b5284828501610999565b91505092915050565b610b6481610978565b82525050565b600060a082019050610b7f6000830188610b5b565b610b8c6020830187610b5b565b610b996040830186610b5b565b610ba66060830185610b04565b610bb36080830184610b04565b9695505050505050565b600080600060608486031215610bd657610bd5610973565b5b6000610be486828701610999565b9350506020610bf586828701610aaf565b9250506040610c0686828701610999565b9150509250925092565b6000602082019050610c256000830184610b5b565b92915050565b600082825260208201905092915050565b7f566f74696e67206e6f7420616374697665000000000000000000000000000000600082015250565b6000610c72601183610c2b565b9150610c7d82610c3c565b602082019050919050565b60006020820190508181036000830152610ca181610c65565b9050919050565b7f566f74696e6720706572696f6420656e64656400000000000000000000000000600082015250565b6000610cde601383610c2b565b9150610ce982610ca8565b602082019050919050565b60006020820190508181036000830152610d0d81610cd1565b9050919050565b7f416c726561647920766f74656400000000000000000000000000000000000000600082015250565b6000610d4a600d83610c2b565b9150610d5582610d14565b602082019050919050565b60006020820190508181036000830152610d7981610d3d565b9050919050565b7f4e6f20766f74696e6720706f7765720000000000000000000000000000000000600082015250565b6000610db6600f83610c2b565b9150610dc182610d80565b602082019050919050565b60006020820190508181036000830152610de581610da9565b9050919050565b7f4e487b7100000000000000000000000000000000000000000000000000000000600052601160045260246000fd5b6000610e2682610978565b9150610e3183610978565b9250828201905080821115610e4957610e48610dec565b5b92915050565b610e5881610a86565b82525050565b6000608082019050610e736000830187610b5b565b610e806020830186610e4f565b610e8d6040830185610b04565b610e9a6060830184610b5b565b95945050505050565b7f566f74696e6720616c7265616479206163746976650000000000000000000000600082015250565b6000610ed9601583610c2b565b9150610ee482610ea3565b602082019050919050565b60006020820190508181036000830152610f0881610ecc565b9050919050565b6000610f1a82610978565b9150610f2583610978565b9250828202610f3381610978565b91508282048414831517610f4a57610f49610dec565b5b5092915050565b6000604082019050610f666000830185610b5b565b610f736020830184610b5b565b9392505050565b7f566f74696e67207374696c6c20696e2070726f67726573730000000000000000600082015250565b6000610fb0601883610c2b565b9150610fbb82610f7a565b602082019050919050565b60006020820190508181036000830152610fdf81610fa3565b9050919050565b7f566f746520616c72656164792065786563757465640000000000000000000000600082015250565b600061101c601583610c2b565b915061102782610fe6565b602082019050919050565b6000602082019050818103600083015261104b8161100f565b9050919050565b60006040820190506110676000830185610b5b565b6110746020830184610b04565b939250505056fea2646970667358221220a76e81b202df68f16b50ee0a1a758450ca97246fa874ce045976e16b0e333fa564736f6c63430008130033",
  "linkReferences": {},
  "deployedLinkReferences": {}
}