{
  "_format": "hh-sol-artifact-1",
  "contractName": "CreditSystem",
  "sourceName": "contracts/CreditSystem.sol",
  "abi": [
    {
      "inputs": [],
      "stateMutability": "nonpayable",
      "type": "constructor"
    },
    {
      "anonymous": false,
      "inputs": [
        {
          "indexed": false,
          "internalType": "address",
          "name": "user",
          "type": "address"
        },
        {
          "indexed": false,
          "internalType": "uint256",
          "name": "newScore",
          "type": "uint256"
        }
      ],
      "name": "CreditScoreUpdated",
      "type": "event"
    },
    {
      "anonymous": false,
      "inputs": [
        {
          "indexed": false,
          "internalType": "address",
          "name": "user",
          "type": "address"
        }
      ],
      "name": "DefaultRecorded",
      "type": "event"
    },
    {
      "anonymous": false,
      "inputs": [
        {
          "indexed": false,
          "internalType": "address",
          "name": "source",
          "type": "address"
        }
      ],
      "name": "SourceAuthorized",
      "type": "event"
    },
    {
      "inputs": [
        {
          "internalType": "address",
          "name": "_source",
          "type": "address"
        }
      ],
      "name": "authorizeSource",
      "outputs": [],
      "stateMutability": "nonpayable",
      "type": "function"
    },
    {
      "inputs": [
        {
          "internalType": "address",
          "name": "",
          "type": "address"
        }
      ],
      "name": "authorizedSources",
      "outputs": [
        {
          "internalType": "bool",
          "name": "",
          "type": "bool"
        }
      ],
      "stateMutability": "view",
      "type": "function"
    },
    {
      "inputs": [
        {
          "internalType": "address",
          "name": "",
          "type": "address"
        }
      ],
      "name": "creditInfo",
      "outputs": [
        {
          "internalType": "uint256",
          "name": "score",
          "type": "uint256"
        },
        {
          "internalType": "uint256",
          "name": "lastUpdated",
          "type": "uint256"
        },
        {
          "internalType": "uint256",
          "name": "transactionCount",
          "type": "uint256"
        },
        {
          "internalType": "uint256",
          "name": "defaultCount",
          "type": "uint256"
        }
      ],
      "stateMutability": "view",
      "type": "function"
    },
    {
      "inputs": [
        {
          "internalType": "address",
          "name": "_user",
          "type": "address"
        }
      ],
      "name": "getCreditScore",
      "outputs": [
        {
          "internalType": "uint256",
          "name": "",
          "type": "uint256"
        }
      ],
      "stateMutability": "view",
      "type": "function"
    },
    {
      "inputs": [
        {
          "internalType": "address",
          "name": "_user",
          "type": "address"
        }
      ],
      "name": "incrementTransactionCount",
      "outputs": [],
      "stateMutability": "nonpayable",
      "type": "function"
    },
    {
      "inputs": [],
      "name": "owner",
      "outputs": [
        {
          "internalType": "address",
          "name": "",
          "type": "address"
        }
      ],
      "stateMutability": "view",
      "type": "function"
    },
    {
      "inputs": [
        {
          "internalType": "address",
          "name": "_user",
          "type": "address"
        }
      ],
      "name": "recordDefault",
      "outputs": [],
      "stateMutability": "nonpayable",
      "type": "function"
    },
    {
      "inputs": [
        {
          "internalType": "address",
          "name": "_user",
          "type": "address"
        },
        {
          "internalType": "uint256",
          "name": "_newScore",
          "type": "uint256"
        }
      ],
      "name": "updateCreditScore",
      "outputs": [],
      "stateMutability": "nonpayable",
      "type": "function"
    }
  ],
  "bytecode": "0x608060405234801561001057600080fd5b5033600260006101000a81548173ffffffffffffffffffffffffffffffffffffffff021916908373ffffffffffffffffffffffffffffffffffffffff160217905550610c1c806100616000396000f3fe608060405234801561001057600080fd5b50600436106100885760003560e01c8063964ebf421161005b578063964ebf42146100ff578063acbb26251461012f578063d3dd2bdf1461014b578063d5b09cb71461017b57610088565b806365352f9d1461008d57806372ad36a6146100a95780638da5cb5b146100c55780638df7352c146100e3575b600080fd5b6100a760048036038101906100a2919061085b565b6101ae565b005b6100c360048036038101906100be919061089b565b610310565b005b6100cd6103f6565b6040516100da91906108d7565b60405180910390f35b6100fd60048036038101906100f8919061089b565b61041c565b005b6101196004803603810190610114919061089b565b6105b4565b604051610126919061090d565b60405180910390f35b6101496004803603810190610144919061089b565b6105d4565b005b6101656004803603810190610160919061089b565b6106f5565b6040516101729190610937565b60405180910390f35b6101956004803603810190610190919061089b565b610792565b6040516101a59493929190610952565b60405180910390f35b600160003373ffffffffffffffffffffffffffffffffffffffff1673ffffffffffffffffffffffffffffffffffffffff16815260200190815260200160002060009054906101000a900460ff1661023a576040517f08c379a0000000000000000000000000000000000000000000000000000000008152600401610231906109f4565b60405180910390fd5b606481111561027e576040517f08c379a000000000000000000000000000000000000000000000000000000000815260040161027590610a60565b60405180910390fd5b60008060008473ffffffffffffffffffffffffffffffffffffffff1673ffffffffffffffffffffffffffffffffffffffff16815260200190815260200160002090508181600001819055504281600101819055507f79c012a0cfae660e09134956bc432c8497ec80e86a3a108d130e8b3fca52b3ad8383604051610303929190610a80565b60405180910390a1505050565b600160003373ffffffffffffffffffffffffffffffffffffffff1673ffffffffffffffffffffffffffffffffffffffff16815260200190815260200160002060009054906101000a900460ff1661039c576040517f08c379a0000000000000000000000000000000000000000000000000000000008152600401610393906109f4565b60405180910390fd5b6000808273ffffffffffffffffffffffffffffffffffffffff1673ffffffffffffffffffffffffffffffffffffffff16815260200190815260200160002060020160008154809291906103ee90610ad8565b919050555050565b600260009054906101000a900473ffffffffffffffffffffffffffffffffffffffff1681565b600160003373ffffffffffffffffffffffffffffffffffffffff1673ffffffffffffffffffffffffffffffffffffffff16815260200190815260200160002060009054906101000a900460ff166104a8576040517f08c379a000000000000000000000000000000000000000000000000000000000815260040161049f906109f4565b60405180910390fd5b60008060008373ffffffffffffffffffffffffffffffffffffffff1673ffffffffffffffffffffffffffffffffffffffff16815260200190815260200160002090508060030160008154809291906104ff90610ad8565b919050555060148160000154106105315760148160000160008282546105259190610b20565b9250508190555061053c565b600081600001819055505b7ff04ec3a9508e23fa237d66bd74f0a033d6411f5293ecdd398bf08c1386dedd068260405161056b91906108d7565b60405180910390a17f79c012a0cfae660e09134956bc432c8497ec80e86a3a108d130e8b3fca52b3ad8282600001546040516105a8929190610a80565b60405180910390a15050565b60016020528060005260406000206000915054906101000a900460ff1681565b600260009054906101000a900473ffffffffffffffffffffffffffffffffffffffff1673ffffffffffffffffffffffffffffffffffffffff163373ffffffffffffffffffffffffffffffffffffffff1614610664576040517f08c379a000000000000000000000000000000000000000000000000000000000815260040161065b90610bc6565b60405180910390fd5b60018060008373ffffffffffffffffffffffffffffffffffffffff1673ffffffffffffffffffffffffffffffffffffffff16815260200190815260200160002060006101000a81548160ff0219169083151502179055507f4259866215295669a8aa580379fdb1207113bfbe3fd2e1915e992bdba65acc07816040516106ea91906108d7565b60405180910390a150565b6000806000808473ffffffffffffffffffffffffffffffffffffffff1673ffffffffffffffffffffffffffffffffffffffff1681526020019081526020016000206001015403610748576032905061078d565b6000808373ffffffffffffffffffffffffffffffffffffffff1673ffffffffffffffffffffffffffffffffffffffff1681526020019081526020016000206000015490505b919050565b60006020528060005260406000206000915090508060000154908060010154908060020154908060030154905084565b600080fd5b600073ffffffffffffffffffffffffffffffffffffffff82169050919050565b60006107f2826107c7565b9050919050565b610802816107e7565b811461080d57600080fd5b50565b60008135905061081f816107f9565b92915050565b6000819050919050565b61083881610825565b811461084357600080fd5b50565b6000813590506108558161082f565b92915050565b60008060408385031215610872576108716107c2565b5b600061088085828601610810565b925050602061089185828601610846565b9150509250929050565b6000602082840312156108b1576108b06107c2565b5b60006108bf84828501610810565b91505092915050565b6108d1816107e7565b82525050565b60006020820190506108ec60008301846108c8565b92915050565b60008115159050919050565b610907816108f2565b82525050565b600060208201905061092260008301846108fe565b92915050565b61093181610825565b82525050565b600060208201905061094c6000830184610928565b92915050565b60006080820190506109676000830187610928565b6109746020830186610928565b6109816040830185610928565b61098e6060830184610928565b95945050505050565b600082825260208201905092915050565b7f4e6f7420616e20617574686f72697a6564206461746120736f75726365000000600082015250565b60006109de601d83610997565b91506109e9826109a8565b602082019050919050565b60006020820190508181036000830152610a0d816109d1565b9050919050565b7f53636f7265206d757374206265206265747765656e203020616e642031303000600082015250565b6000610a4a601f83610997565b9150610a5582610a14565b602082019050919050565b60006020820190508181036000830152610a7981610a3d565b9050919050565b6000604082019050610a9560008301856108c8565b610aa26020830184610928565b9392505050565b7f4e487b7100000000000000000000000000000000000000000000000000000000600052601160045260246000fd5b6000610ae382610825565b91507fffffffffffffffffffffffffffffffffffffffffffffffffffffffffffffffff8203610b1557610b14610aa9565b5b600182019050919050565b6000610b2b82610825565b9150610b3683610825565b9250828203905081811115610b4e57610b4d610aa9565b5b92915050565b7f4f6e6c79206f776e65722063616e2063616c6c20746869732066756e6374696f60008201527f6e00000000000000000000000000000000000000000000000000000000000000602082015250565b6000610bb0602183610997565b9150610bbb82610b54565b604082019050919050565b60006020820190508181036000830152610bdf81610ba3565b905091905056fea2646970667358221220cbc5438d7987e068447dd9d3744434234663c9f2162ae37d19d6a2179d21ccb164736f6c63430008130033",
  "linkReferences": {},
  "deployedLinkReferences": {}
}