{
  "_format": "hh-sol-artifact-1",
  "contractName": "TrustLinkLending",
  "sourceName": "contracts/TrustLinkLending.sol",
  "abi": [
    {
      "anonymous": false,
      "inputs": [
        {
          "indexed": false,
          "internalType": "uint256",
          "name": "projectId",
          "type": "uint256"
        },
        {
          "indexed": false,
          "internalType": "address",
          "name": "borrower",
          "type": "address"
        },
        {
          "indexed": false,
          "internalType": "uint256",
          "name": "amount",
          "type": "uint256"
        }
      ],
      "name": "CollateralWithdrawn",
      "type": "event"
    },
    {
      "anonymous": false,
      "inputs": [
        {
          "indexed": false,
          "internalType": "uint256",
          "name": "projectId",
          "type": "uint256"
        },
        {
          "indexed": false,
          "internalType": "uint256",
          "name": "lossPercentage",
          "type": "uint256"
        }
      ],
      "name": "LossUpdated",
      "type": "event"
    },
    {
      "anonymous": false,
      "inputs": [
        {
          "indexed": false,
          "internalType": "uint256",
          "name": "projectId",
          "type": "uint256"
        },
        {
          "indexed": false,
          "internalType": "address",
          "name": "borrower",
          "type": "address"
        },
        {
          "indexed": false,
          "internalType": "string",
          "name": "title",
          "type": "string"
        },
        {
          "indexed": false,
          "internalType": "uint256",
          "name": "fundingGoal",
          "type": "uint256"
        }
      ],
      "name": "ProjectCreated",
      "type": "event"
    },
    {
      "anonymous": false,
      "inputs": [
        {
          "indexed": false,
          "internalType": "uint256",
          "name": "projectId",
          "type": "uint256"
        },
        {
          "indexed": false,
          "internalType": "address",
          "name": "investor",
          "type": "address"
        },
        {
          "indexed": false,
          "internalType": "uint256",
          "name": "amount",
          "type": "uint256"
        }
      ],
      "name": "ProjectFunded",
      "type": "event"
    },
    {
      "inputs": [
        {
          "internalType": "string",
          "name": "_title",
          "type": "string"
        },
        {
          "internalType": "string",
          "name": "_description",
          "type": "string"
        },
        {
          "internalType": "uint256",
          "name": "_fundingGoal",
          "type": "uint256"
        },
        {
          "internalType": "uint256",
          "name": "_durationInDays",
          "type": "uint256"
        }
      ],
      "name": "createProject",
      "outputs": [],
      "stateMutability": "payable",
      "type": "function"
    },
    {
      "inputs": [
        {
          "internalType": "uint256",
          "name": "_projectId",
          "type": "uint256"
        },
        {
          "internalType": "address",
          "name": "_investor",
          "type": "address"
        }
      ],
      "name": "getInvestmentAmount",
      "outputs": [
        {
          "internalType": "uint256",
          "name": "",
          "type": "uint256"
        }
      ],
      "stateMutability": "view",
      "type": "function"
    },
    {
      "inputs": [
        {
          "internalType": "uint256",
          "name": "_projectId",
          "type": "uint256"
        }
      ],
      "name": "getProjectInfo",
      "outputs": [
        {
          "internalType": "address",
          "name": "borrower",
          "type": "address"
        },
        {
          "internalType": "string",
          "name": "title",
          "type": "string"
        },
        {
          "internalType": "string",
          "name": "description",
          "type": "string"
        },
        {
          "internalType": "uint256",
          "name": "fundingGoal",
          "type": "uint256"
        },
        {
          "internalType": "uint256",
          "name": "amountRaised",
          "type": "uint256"
        },
        {
          "internalType": "uint256",
          "name": "deadline",
          "type": "uint256"
        },
        {
          "internalType": "uint256",
          "name": "collateralAmount",
          "type": "uint256"
        },
        {
          "internalType": "uint256",
          "name": "lossPercentage",
          "type": "uint256"
        },
        {
          "internalType": "bool",
          "name": "isOpen",
          "type": "bool"
        }
      ],
      "stateMutability": "view",
      "type": "function"
    },
    {
      "inputs": [
        {
          "internalType": "uint256",
          "name": "_projectId",
          "type": "uint256"
        }
      ],
      "name": "investInProject",
      "outputs": [],
      "stateMutability": "payable",
      "type": "function"
    },
    {
      "inputs": [],
      "name": "platformFeeRate",
      "outputs": [
        {
          "internalType": "uint256",
          "name": "",
          "type": "uint256"
        }
      ],
      "stateMutability": "view",
      "type": "function"
    },
    {
      "inputs": [],
      "name": "projectCount",
      "outputs": [
        {
          "internalType": "uint256",
          "name": "",
          "type": "uint256"
        }
      ],
      "stateMutability": "view",
      "type": "function"
    },
    {
      "inputs": [
        {
          "internalType": "uint256",
          "name": "",
          "type": "uint256"
        }
      ],
      "name": "projects",
      "outputs": [
        {
          "internalType": "address",
          "name": "borrower",
          "type": "address"
        },
        {
          "internalType": "string",
          "name": "title",
          "type": "string"
        },
        {
          "internalType": "string",
          "name": "description",
          "type": "string"
        },
        {
          "internalType": "uint256",
          "name": "fundingGoal",
          "type": "uint256"
        },
        {
          "internalType": "uint256",
          "name": "amountRaised",
          "type": "uint256"
        },
        {
          "internalType": "uint256",
          "name": "deadline",
          "type": "uint256"
        },
        {
          "internalType": "uint256",
          "name": "collateralAmount",
          "type": "uint256"
        },
        {
          "internalType": "uint256",
          "name": "lossPercentage",
          "type": "uint256"
        },
        {
          "internalType": "bool",
          "name": "isOpen",
          "type": "bool"
        }
      ],
      "stateMutability": "view",
      "type": "function"
    },
    {
      "inputs": [
        {
          "internalType": "uint256",
          "name": "_projectId",
          "type": "uint256"
        },
        {
          "internalType": "uint256",
          "name": "_lossPercentage",
          "type": "uint256"
        }
      ],
      "name": "updateLossPercentage",
      "outputs": [],
      "stateMutability": "nonpayable",
      "type": "function"
    }
  ],
  "bytecode": "0x608060405260006001556002805534801561001957600080fd5b5061163c806100296000396000f3fe60806040526004361061007b5760003560e01c806394ba97091161004e57806394ba970914610135578063bb7e385a14610151578063eeca08f01461018e578063fabf5968146101b95761007b565b8063107046bd1461008057806336fbad26146100c55780635b562fd8146100f05780638c8461201461010c575b600080fd5b34801561008c57600080fd5b506100a760048036038101906100a29190610a1d565b6101fe565b6040516100bc99989796959493929190610b45565b60405180910390f35b3480156100d157600080fd5b506100da610389565b6040516100e79190610be0565b60405180910390f35b61010a60048036038101906101059190610a1d565b61038f565b005b34801561011857600080fd5b50610133600480360381019061012e9190610bfb565b610544565b005b61014f600480360381019061014a9190610d70565b610633565b005b34801561015d57600080fd5b5061017860048036038101906101739190610e3b565b6107bc565b6040516101859190610be0565b60405180910390f35b34801561019a57600080fd5b506101a3610819565b6040516101b09190610be0565b60405180910390f35b3480156101c557600080fd5b506101e060048036038101906101db9190610a1d565b61081f565b6040516101f599989796959493929190610b45565b60405180910390f35b60006020528060005260406000206000915090508060000160009054906101000a900473ffffffffffffffffffffffffffffffffffffffff169080600101805461024790610eaa565b80601f016020809104026020016040519081016040528092919081815260200182805461027390610eaa565b80156102c05780601f10610295576101008083540402835291602001916102c0565b820191906000526020600020905b8154815290600101906020018083116102a357829003601f168201915b5050505050908060020180546102d590610eaa565b80601f016020809104026020016040519081016040528092919081815260200182805461030190610eaa565b801561034e5780601f106103235761010080835404028352916020019161034e565b820191906000526020600020905b81548152906001019060200180831161033157829003601f168201915b5050505050908060030154908060040154908060050154908060060154908060070154908060080160009054906101000a900460ff16905089565b60015481565b600080600083815260200190815260200160002090508060080160009054906101000a900460ff166103f6576040517f08c379a00000000000000000000000000000000000000000000000000000000081526004016103ed90610f4d565b60405180910390fd5b8060050154421061043c576040517f08c379a000000000000000000000000000000000000000000000000000000000815260040161043390610fdf565b60405180910390fd5b8060030154348260040154610451919061102e565b1115610492576040517f08c379a0000000000000000000000000000000000000000000000000000000008152600401610489906110d4565b60405180910390fd5b348160090160003373ffffffffffffffffffffffffffffffffffffffff1673ffffffffffffffffffffffffffffffffffffffff16815260200190815260200160002060008282546104e3919061102e565b92505081905550348160040160008282546104fe919061102e565b925050819055507f6251418ffd7f504740544ec3d578897633e212c5d658b7dce793c5dc9d2e855e823334604051610538939291906110f4565b60405180910390a15050565b600080600084815260200190815260200160002090508060000160009054906101000a900473ffffffffffffffffffffffffffffffffffffffff1673ffffffffffffffffffffffffffffffffffffffff163373ffffffffffffffffffffffffffffffffffffffff16146105ec576040517f08c379a00000000000000000000000000000000000000000000000000000000081526004016105e390611177565b60405180910390fd5b8181600701819055507f998bfaf9c260d4537031b95c08213a5fcc38d212c2fda403c74389c066c86f618383604051610626929190611197565b60405180910390a1505050565b606460148361064291906111c0565b61064c9190611231565b34101561068e576040517f08c379a0000000000000000000000000000000000000000000000000000000008152600401610685906112d4565b60405180910390fd5b600080600060015481526020019081526020016000209050338160000160006101000a81548173ffffffffffffffffffffffffffffffffffffffff021916908373ffffffffffffffffffffffffffffffffffffffff160217905550848160010190816106fa91906114a0565b508381600201908161070c91906114a0565b50828160030181905550620151808261072591906111c0565b42610730919061102e565b816005018190555034816006018190555060018160080160006101000a81548160ff0219169083151502179055507f51d08cb6cfa640a387210fb69df925dfb70169ae7373f8ecd40b977b0c800d9a6001543387866040516107959493929190611572565b60405180910390a1600160008154809291906107b0906115be565b91905055505050505050565b600080600084815260200190815260200160002060090160008373ffffffffffffffffffffffffffffffffffffffff1673ffffffffffffffffffffffffffffffffffffffff16815260200190815260200160002054905092915050565b60025481565b600060608060008060008060008060008060008c815260200190815260200160002090508060000160009054906101000a900473ffffffffffffffffffffffffffffffffffffffff168160010182600201836003015484600401548560050154866006015487600701548860080160009054906101000a900460ff168780546108a790610eaa565b80601f01602080910402602001604051908101604052809291908181526020018280546108d390610eaa565b80156109205780601f106108f557610100808354040283529160200191610920565b820191906000526020600020905b81548152906001019060200180831161090357829003601f168201915b5050505050975086805461093390610eaa565b80601f016020809104026020016040519081016040528092919081815260200182805461095f90610eaa565b80156109ac5780601f10610981576101008083540402835291602001916109ac565b820191906000526020600020905b81548152906001019060200180831161098f57829003601f168201915b50505050509650995099509950995099509950995099509950509193959799909294969850565b6000604051905090565b600080fd5b600080fd5b6000819050919050565b6109fa816109e7565b8114610a0557600080fd5b50565b600081359050610a17816109f1565b92915050565b600060208284031215610a3357610a326109dd565b5b6000610a4184828501610a08565b91505092915050565b600073ffffffffffffffffffffffffffffffffffffffff82169050919050565b6000610a7582610a4a565b9050919050565b610a8581610a6a565b82525050565b600081519050919050565b600082825260208201905092915050565b60005b83811015610ac5578082015181840152602081019050610aaa565b60008484015250505050565b6000601f19601f8301169050919050565b6000610aed82610a8b565b610af78185610a96565b9350610b07818560208601610aa7565b610b1081610ad1565b840191505092915050565b610b24816109e7565b82525050565b60008115159050919050565b610b3f81610b2a565b82525050565b600061012082019050610b5b600083018c610a7c565b8181036020830152610b6d818b610ae2565b90508181036040830152610b81818a610ae2565b9050610b906060830189610b1b565b610b9d6080830188610b1b565b610baa60a0830187610b1b565b610bb760c0830186610b1b565b610bc460e0830185610b1b565b610bd2610100830184610b36565b9a9950505050505050505050565b6000602082019050610bf56000830184610b1b565b92915050565b60008060408385031215610c1257610c116109dd565b5b6000610c2085828601610a08565b9250506020610c3185828601610a08565b9150509250929050565b600080fd5b600080fd5b7f4e487b7100000000000000000000000000000000000000000000000000000000600052604160045260246000fd5b610c7d82610ad1565b810181811067ffffffffffffffff82111715610c9c57610c9b610c45565b5b80604052505050565b6000610caf6109d3565b9050610cbb8282610c74565b919050565b600067ffffffffffffffff821115610cdb57610cda610c45565b5b610ce482610ad1565b9050602081019050919050565b82818337600083830152505050565b6000610d13610d0e84610cc0565b610ca5565b905082815260208101848484011115610d2f57610d2e610c40565b5b610d3a848285610cf1565b509392505050565b600082601f830112610d5757610d56610c3b565b5b8135610d67848260208601610d00565b91505092915050565b60008060008060808587031215610d8a57610d896109dd565b5b600085013567ffffffffffffffff811115610da857610da76109e2565b5b610db487828801610d42565b945050602085013567ffffffffffffffff811115610dd557610dd46109e2565b5b610de187828801610d42565b9350506040610df287828801610a08565b9250506060610e0387828801610a08565b91505092959194509250565b610e1881610a6a565b8114610e2357600080fd5b50565b600081359050610e3581610e0f565b92915050565b60008060408385031215610e5257610e516109dd565b5b6000610e6085828601610a08565b9250506020610e7185828601610e26565b9150509250929050565b7f4e487b7100000000000000000000000000000000000000000000000000000000600052602260045260246000fd5b60006002820490506001821680610ec257607f821691505b602082108103610ed557610ed4610e7b565b5b50919050565b7f50726f6a656374206973206e6f74206f70656e20666f7220696e766573746d6560008201527f6e74000000000000000000000000000000000000000000000000000000000000602082015250565b6000610f37602283610a96565b9150610f4282610edb565b604082019050919050565b60006020820190508181036000830152610f6681610f2a565b9050919050565b7f50726f6a6563742066756e64696e6720646561646c696e65206861732070617360008201527f7365640000000000000000000000000000000000000000000000000000000000602082015250565b6000610fc9602383610a96565b9150610fd482610f6d565b604082019050919050565b60006020820190508181036000830152610ff881610fbc565b9050919050565b7f4e487b7100000000000000000000000000000000000000000000000000000000600052601160045260246000fd5b6000611039826109e7565b9150611044836109e7565b925082820190508082111561105c5761105b610fff565b5b92915050565b7f496e766573746d656e7420776f756c64206578636565642066756e64696e672060008201527f676f616c00000000000000000000000000000000000000000000000000000000602082015250565b60006110be602483610a96565b91506110c982611062565b604082019050919050565b600060208201905081810360008301526110ed816110b1565b9050919050565b60006060820190506111096000830186610b1b565b6111166020830185610a7c565b6111236040830184610b1b565b949350505050565b7f4f6e6c7920626f72726f7765722063616e20757064617465206c6f7373000000600082015250565b6000611161601d83610a96565b915061116c8261112b565b602082019050919050565b6000602082019050818103600083015261119081611154565b9050919050565b60006040820190506111ac6000830185610b1b565b6111b96020830184610b1b565b9392505050565b60006111cb826109e7565b91506111d6836109e7565b92508282026111e4816109e7565b915082820484148315176111fb576111fa610fff565b5b5092915050565b7f4e487b7100000000000000000000000000000000000000000000000000000000600052601260045260246000fd5b600061123c826109e7565b9150611247836109e7565b92508261125757611256611202565b5b828204905092915050565b7f436f6c6c61746572616c206d757374206265206174206c65617374203230252060008201527f6f662066756e64696e6720676f616c0000000000000000000000000000000000602082015250565b60006112be602f83610a96565b91506112c982611262565b604082019050919050565b600060208201905081810360008301526112ed816112b1565b9050919050565b60008190508160005260206000209050919050565b60006020601f8301049050919050565b600082821b905092915050565b6000600883026113567fffffffffffffffffffffffffffffffffffffffffffffffffffffffffffffffff82611319565b6113608683611319565b95508019841693508086168417925050509392505050565b6000819050919050565b600061139d611398611393846109e7565b611378565b6109e7565b9050919050565b6000819050919050565b6113b783611382565b6113cb6113c3826113a4565b848454611326565b825550505050565b600090565b6113e06113d3565b6113eb8184846113ae565b505050565b5b8181101561140f576114046000826113d8565b6001810190506113f1565b5050565b601f82111561145457611425816112f4565b61142e84611309565b8101602085101561143d578190505b61145161144985611309565b8301826113f0565b50505b505050565b600082821c905092915050565b600061147760001984600802611459565b1980831691505092915050565b60006114908383611466565b9150826002028217905092915050565b6114a982610a8b565b67ffffffffffffffff8111156114c2576114c1610c45565b5b6114cc8254610eaa565b6114d7828285611413565b600060209050601f83116001811461150a57600084156114f8578287015190505b6115028582611484565b86555061156a565b601f198416611518866112f4565b60005b828110156115405784890151825560018201915060208501945060208101905061151b565b8683101561155d5784890151611559601f891682611466565b8355505b6001600288020188555050505b505050505050565b60006080820190506115876000830187610b1b565b6115946020830186610a7c565b81810360408301526115a68185610ae2565b90506115b56060830184610b1b565b95945050505050565b60006115c9826109e7565b91507fffffffffffffffffffffffffffffffffffffffffffffffffffffffffffffffff82036115fb576115fa610fff565b5b60018201905091905056fea2646970667358221220066dae4bdb0e889c8eb65fd1c7bb767efb54b3a8c46bc10554fe90e25b69cba364736f6c63430008130033",
  "linkReferences": {},
  "deployedLinkReferences": {}
}